:020000040800F2
:10000000C0040020450100085F020008D501000877
:100010005B0200088D0100082D06000800000000AA
:10002000000000000000000000000000350400088F
:10003000C501000800000000610200083704000844
:100040005F0100085F0100085F0100085F01000810
:100050005F0100085F0100085F0100085F01000800
:100060005F0100085F0100085F0100085F010008F0
:100070005F0100085F0100085F0100085F010008E0
:100080005F0100085F0100085F0100085F010008D0
:100090005F0100085F0100085F0100085F010008C0
:1000A0005F0100085F0100085F0100085F010008B0
:1000B0005F010008E10400085F0100085F0100081B
:1000C0005F0100085F0100085F0100085F01000890
:1000D0005F0100085F0100085F0100085F01000880
:1000E0005F0100085F0100085F0100085F01000870
:1000F0005F0100085F0100085F0100085F01000860
:100100005F0100085F0100085F0100085F0100084F
:100110005F0100085F0100085F0100085F0100083F
:100120005F0100085F0100085F0100085F0100082F
:10013000DFF80CD000F018F8004800479D070008D1
:10014000C00400200648804706480047FEE7FEE757
:10015000FEE7FEE7FEE7FEE7FEE7FEE7FEE7FEE777
:100160003904000831010008064C074D06E0E0683C
:1001700040F0010394E8070098471034AC42F6D3EE
:10018000FFF7DAFF1C0F00083C0F000800BFFEE776
:1001900070B51D2542F2107404E0802000F002FDCD
:1001A00000B103E0201EA4F10104F6D100BF0CB998
:1001B000132070BD024800F0EFFC2846F9E700006C
:1001C000FF07C000704770B5044694E80F0000F0C8
:1001D00087FA70BD00BFFEE710B500F0FFF900F030
:1001E00003F800F03FF810BD1FB50020009001900B
:1001F0000290039040F2026000F038FC2820019049
:10020000042002900948808803906846FFF7DBFFCE
:1002100000200190042002900548808805498988C3
:10022000084303906846FFF7CEFF1FBD6C00002017
:100230005C0000206400002010B500F09FFC00224C
:100240001146312000F0BEFA40F20A5000F00EFCD8
:1002500040F2015000F00AFC10BD00BFFEE77047FD
:10026000704700001FB5002000900190029003909D
:1002700040F2046000F0FAFB40F2056000F0F6FB8B
:100280004FF4C06000F0F2FB094800904FF4F850C2
:10029000039018200190042002906846FFF793FF16
:1002A00004480090042003906846FFF78CFF1FBDB0
:1002B000001001400014014010B5044694E8070006
:1002C00000F03CFCE06800F0A5FC00F04DFC10BD27
:1002D00010B51D24FFF7B0FF00F004F804462046D7
:1002E00010BD00002DE9FF4700261D240027002532
:1002F0004FF0000A4FF000084FF000094FF49573DB
:1003000000221146104600F0EFFB002000F0DEFB5B
:1003100000F054FC032000F05BFC00F0FFFB00BF8A
:100320000FE0002000900190029003906846FFF7D4
:10033000C3FFFFF72DFF04461D2C00D103E0701C06
:10034000C6B24A2EEDDB00BF1D2C03D0204604B000
:10035000BDE8F087082000904FF4D5700190402050
:100360000290002003906846FFF7A6FF00F054FBC0
:100370001D2804D101202D4908704FF080483720F6
:1003800000900020019040200290002003906846D9
:10039000FFF792FF372000F081FA1D2844D12EE0AC
:1003A0003720009000200190402002900020039010
:1003B0006846FFF781FF372000F070FA04461D2CD5
:1003C00001D02046C3E729200090194848EA0000E0
:1003D000019040200290002003906846FFF76CFFD8
:1003E00000F0FCFA04461D2C01D02046AFE70020A7
:1003F00000F0F4FB0746012000EAD7796D1CB9F143
:10040000000F03D14FF6FF708542C9D34FF6FF703E
:10041000854202D31824204699E707F08040071E42
:1004200002D0022001490870204690E7B000002069
:10043000000010807047704708B52648006840F4F7
:100440007000244908602448006840F001002249F7
:10045000086000BF2048006800F002000028F9D0C2
:1004600000BF1D48406840F080001B4948600020E4
:10047000009002E00098401C009000985028F9D3AA
:100480001548406840F090001349486000200090F3
:1004900002E00098401C009000985028F9D300BF5B
:1004A0000D48406820F003000B494860084600688A
:1004B0000A490840084908604FF41F008860084650
:1004C000006820F48020086000204860C86200F0C6
:1004D00039FC08BD88ED00E000100240FFFFF6FE89
:1004E00010B50121164800F00CFD38B30121144865
:1004F00000F004FD01201349087013480078401CE7
:1005000011490870084600783C2817DB0020087065
:100510000E480078401C0D490870084600783C28B9
:100520000CDB002008700A480078401C084908705D
:1005300008460078182801DB0020087010BD000074
:1005400000040040A8000020A6000020A500002014
:10055000A400002000B585B0002001900290039017
:10056000049040F2017000F081FA1B4800F002FC98
:100570000020ADF8080042F20F70039042F6DF60F1
:10058000ADF804000020ADF80A00ADF806008DF8C3
:10059000100001A9104800F061FC01210E4800F094
:1005A000ADFC01210C4800F0A5FC1D208DF80000D9
:1005B00000208DF8010003208DF802009DF8022034
:1005C0009DF801109DF8000000F0FCF8024800F0D2
:1005D0003FFC05B000BD0000000400401FB5002036
:1005E000009001900290039040F2026000F03EFA09
:1005F0000C48006800900B488088039018200190F8
:10060000042002906846FFF7DEFD0748006800906E
:100610000548808803900420019002906846FFF707
:10062000D2FD1FBD0C0000201400002000BFFEE71B
:1006300002E008C8121F08C1002AFAD170477047AB
:10064000002001E001C1121F002AFBD17047000009
:1006500010B56FF0040000F079FB0A4800680A4901
:10066000B0FBF1F0094908700846007800EB400142
:10067000C1EBC0104FF6FF7101EAC00004490880C9
:1006800010BD00000000002000127A00AA00002027
:10069000AC0000200146114A12884A434FF0E02383
:1006A0005A6100229A611A46126942F001021A61E7
:1006B00000BF4FF0E022106900F001021AB100F40F
:1006C0008032002AF5D04FF0E022126922F00102B8
:1006D0004FF0E0231A6100229A617047AC000020BD
:1006E000F0B5044616460025002201F00F0501F082
:1006F000100747B1042E05D145F00305E76B1F43F2
:10070000E76300E0354300201EE0012787401F40DB
:10071000C7B122684FEA800C0F2707FA0CF7BA43DB
:10072000870005FA07F73A43282904D101278740B3
:100730001F40676105E0482903D1012787401F401A
:1007400027612260471CB8B20828DED3082022E0C7
:10075000012787401F40E7B16268A0F108074FEA10
:10076000870C0F2707FA0CF7BA43A0F10807BF0060
:1007700005FA07F73A43282904D1012787401F408B
:10078000676105E0482903D1012787401F402761A1
:100790006260471CB8B21028DAD3F0BD4FF4E060B5
:1007A00000F072F8FFF754FFFFF716FDFFF7D2FED7
:1007B000FFF78EFD0A20FFF76DFF02E00520FFF72F
:1007C00069FFFBE72DE9F04103460D46164600247C
:1007D0000027A0462A48006800F4E060B0F5E06F0A
:1007E00003D100BF4FF0040830E02548006800F452
:1007F000E060B0F5C06F03D101274FF0030825E09A
:100800001F48006800F4E060B0F5A06F02D1022735
:10081000B8461BE01A48006800F4E060B0F5806F4D
:1008200003D103274FF0010810E01548006800F4D9
:10083000E060B0F5407F03D104274FF0000805E0E9
:100840004FF4A06000F020F80227B846C7F104007A
:1008500005FA00F4C8F104010F20C84030400443F9
:1008600024010848C45403F01F0101208840591195
:10087000890001F1E021C1F80001BDE8F08100002C
:100880000CED00E000E400E002490143024A11607F
:10089000704700000000FA050CED00E0F8B50546D1
:1008A0001D270024002642F2107000901C48446B63
:1008B00001E01B48446B04F045000028F9D004F027
:1008C000010028B11127012000F066F93846F8BD73
:1008D00004F0040028B11327042000F05DF9384625
:1008E000F5E700F025F9A84202D008273846EEE7E0
:1008F0000C4800F051F9002000F070F906460EB9DE
:10090000012000E000200849084010B11D273846AA
:10091000DDE7304600F00AF807463846D7E7000022
:1009200000800140FF07C00008E0F9FD01461C20DF
:1009300001F000420AB100204EE001F080420AB10D
:10094000012049E001F000520AB1022044E001F028
:1009500080520AB103203FE001F000620AB1042096
:100960003AE001F080620AB1052035E001F08072C2
:100970000AB1062030E001F400020AB107202BE0A2
:1009800001F480020AB1082026E001F400120AB145
:10099000092021E001F480120AB10A201CE001F4D0
:1009A00000220AB10B2017E001F480320AB10C20BA
:1009B00012E001F400420AB10D200DE001F4804282
:1009C0000AB10E2008E001F400520AB10F2003E042
:1009D00001F0080202B110207047000070B51D251B
:1009E00000240B48446B01E00948446B04F04500C7
:1009F0000028F9D004F0040028B10425042000F0F8
:100A0000CBF8284670BD034800F0C6F82846F9E741
:100A100000800140FF07C00038B51C25002442F2C9
:100A2000107000901048446B04E00F48446B00982D
:100A3000401E009004F0450010B900980028F4D141
:100A400004F0040008B9009810B91325284638BDF1
:100A500004F0400028B11D25402000F09DF82846F4
:100A6000F5E72846F3E7000000800140064A02EB64
:100A70009011096800F01F0301229A401143024BB4
:100A800003EB90121160704700100240064A02EB1F
:100A90009011096800F01F0301229A409143024B14
:100AA00003EB90121160704700100240064A02EBFF
:100AB0009011096800F01F0301229A401143024B74
:100AC00003EB90121160704700100240054949681D
:100AD00021F4C051034A51601146496801435160F5
:100AE000704700000080014030B504460020094DE9
:100AF0006868094D2840FF2B04D940F00040A3F559
:100B00008075ABB244EA010515431D432843014DEE
:100B1000686030BD0080014000D9FF7F0348406815
:100B200040F4807001494860704700000080014037
:100B300001480069C0B270470080014030B50346EB
:100B40000020084CA4680024064DAC602C46A1602F
:100B5000E06820F0FF0043EA020420432C46E060F6
:100B600030BD0000008001400348C06840F4806050
:100B70000149C8607047000000800140002005491D
:100B8000086048608860C86048628862C86288639C
:100B9000C8637047008001400149886370470000C6
:100BA0000080014001460448406B084008B1012024
:100BB00070470020FCE700000080014003484068C7
:100BC00020F48040014948607047000000800140E7
:100BD0000149086070470000008001400146002084
:100BE00031B1012907D0022908D003290CD108E02E
:100BF000074A506909E0064A906906E0044AD0694C
:100C000003E0034A106A00E000BF00BF7047000025
:100C1000008001400549C96821F44071034AD16050
:100C20001146C9680143D16070470000008001404F
:100C3000002000213F4A126842F480323D4B1A6086
:100C400000BF401C3B4A126802F4003119B94FF64C
:100C5000FF729042F5D1374A126802F400320AB9A5
:100C600000BFFEE7334AD26942F08052314BDA616D
:100C7000314A126842F440422F4B1A602D4A5268A2
:100C80002C4B5A601A4652685A601A46526842F40F
:100C900080625A601A46526822F440325A601A46FC
:100CA000526842F440325A601A465268234B1A4046
:100CB000204B5A601A465268214B1A431D4B5A600A
:100CC0001A46126842F080721A6000BF194A126810
:100CD00002F00072002AF9D0174A126842F48032FA
:100CE000154B1A6000BF144A526802F48032002A81
:100CF000F9D0114A126842F400320F4B1A6000BF5B
:100D00000D4A526802F40032002AF9D0094A5268AA
:100D100022F00302074B5A601A46526842F0020260
:100D20005A6000BF034A526802F00802002AF9D054
:100D3000704700000010024000700040FFFFC3B782
:100D40000000340810B5FFF773FF10BD042808D168
:100D50004FF0E021096941F004014FF0E0221161F8
:100D600007E04FF0E021096921F004014FF0E02293
:100D70001161704710B504463349601A8C4244D063
:100D80000CDCB4F1804F1CD03048204410B3B0F5D7
:100D9000806F28D0B0F5006F52D12DE0B0F5806F94
:100DA0003CD0B0F58E3F03D0B0F5923F48D13EE045
:100DB00040F20B30FFF77AFE40F20B30FFF766FE91
:100DC0003FE04FF48060FFF771FE4FF48060FFF763
:100DD0005DFE36E040F20140FFF768FE40F2014060
:100DE000FFF754FE2DE040F20240FFF75FFE40F2B5
:100DF0000240FFF74BFE24E040F20340FFF756FEAF
:100E000040F20340FFF742FE1BE040F20440FFF7D0
:100E10004DFE40F20440FFF739FE12E040F205407B
:100E2000FFF744FE40F20540FFF730FE09E040F2D4
:100E30000D30FFF73BFE40F20D30FFF727FE00E0DC
:100E400000BF00BF10BD00000010004000FCFFBF4D
:100E5000016841F001010160704700000A88826268
:100E60001D4A90420ED0B0F1804F0BD01B4A9042E9
:100E700008D01B4A904205D01A4A904202D01A4A22
:100E800090420BD1026822F07002026002684B8827
:100E90001A43026002688B881A4302608A68C26241
:100EA000124A90420AD0124A904207D0026822F4B5
:100EB000407202600268CB881A430260064A904280
:100EC00002D0094A904201D10A7B0263426942F092
:100ED0000102426170470000002C01400004004004
:100EE00000080040000C00400034014000100040A9
:100EF00000140040C2680A43C2607047CA430261DE
:100F000070470246D06800EA01031069084010B13A
:100F10000BB1012070470020FCE700003C0F0008E7
:100F200000000020BC00000030060008F80F000898
:100F3000BC0000200404000040060008000E270743
:100F4000000801400001000000080140000200000C
:100F500000080140000400000008014000080000F3
:100F600000080140001000000008014008000000D7
:100F700000080140100000000008014020000000AF
:100F8000000801404000000000080140800000000F
:100F900000100140100000000008014002000000A5
:100FA00000080140040000000008014000040000A7
:100FB000001001400001000000100140000200008C
:100FC0000010014000040000001001400008000073
:100FD0000010014000100000001401400400000057
:100FE0000F120000000000000000000000000000E0
:080FF0000000000000000000F9
:0400000508000131BD
:00000001FF
