:020000040800F2
:100000003805002045010008710D0008710700083F
:100010006D0D0008290700085D14000800000000AD
:100020000000000000000000000000006512000851
:100030006107000800000000730D00086712000847
:100040005F0100085F0100085F0100085F01000810
:100050005F0100085F0100085F0100085F01000800
:100060005F0100085F0100085F0100085F010008F0
:100070005F0100085F0100085F0100085F010008E0
:100080005F0100085F0100085F0100085F010008D0
:100090005F0100085F0100085F0100085F010008C0
:1000A0005F0100085F0100085F0100085F010008B0
:1000B0005F010008111300085F0100085F010008DC
:1000C0005F0100085F0100085F0100085F01000890
:1000D0005F0100085F0100085F0100085F01000880
:1000E0005F0100085F0100085F0100085F01000870
:1000F0005F0100085F0100085F0100085F01000860
:100100005F0100085F0100085F0100085F0100084F
:100110005F0100085F0100085F0100085F0100083F
:100120005F0100085F0100085F0100085F0100082F
:10013000DFF80CD000F074FA0048004719240008DA
:10014000380500200648804706480047FEE7FEE7DE
:10015000FEE7FEE7FEE7FEE7FEE7FEE7FEE7FEE777
:1001600069120008310100080EB5C10F80EAE07085
:100170000844CA07002140F233438DE80E000A46C6
:100180000B4600F047F803B000BD0EB540F2334116
:1001900002910021CDE900110A460B4600F03AF821
:1001A00003B000BDC1F30A5210B5C1F3130140F210
:1001B000FF3341F480119A4201DA002010BD40F271
:1001C00033439A42A2F2334203DC524200F003F876
:1001D00010BD904010BD202A04DB203A21FA02F025
:1001E0000021704721FA02F3D040C2F12002914071
:1001F00008431946704710B5141E73F1000408DA5D
:10020000401C41F1000192185B411A4301D120F0DA
:10021000010010BD2DE9F04D92469B4611B1B1FA97
:1002200081F202E0B0FA80F22032904600F00AFA41
:1002300004460F4640EA0A0041EA0B0153465A467B
:10024000084313D0114653EA010019D0C8F1400207
:100250005046FFF7C0FF05460E46504659464246F7
:1002600000F0F0F9084305D0012004E020463946AB
:10027000BDE8F08D0020054346EAE0762C43374385
:100280000A986305E40AA0EB08000022FD0A44EA8C
:1002900047540A3002D500200146E9E7010510194C
:1002A0006941DDE9084500196941BDE8F04DA2E763
:1002B0002DE9FE4F804681EA0300C00F0C460090F6
:1002C00021F0004123F00045B8EB0200A94105D21E
:1002D0004046214690461C460B46024623F000400D
:1002E000104347D0270DC7F30A00C3F30A51029009
:1002F000401A019040286BDAC3F3130040F4801BCE
:100300000098924620B10023D2EB030A63EB0B0B5B
:1003100001985946C0F14002504600F093F9064654
:100320000D4650465946019A00F09BF910EB080023
:100330006141002487EA115284EAE7731A4340D0EE
:10034000009A62B3019A012A4FEA075215DC001B9A
:1003500061EB02014FF0004202EA0752CDE9004290
:10036000001C41F5801132462B46FFF753FF03B0C6
:10037000BDE8F08F40462146F9E7001B61EB020122
:10038000001C41F5801300185B412018A2F50017EE
:1003900047EB030140EAD570B6196D4111E06D08D5
:1003A0004FEA360645EAC0754FEA0752001B61EB7B
:1003B0000201001C41F5801149084FEA3000001984
:1003C000514132462B4603B0BDE8F04FFFF713BF53
:1003D0000098012240000023D0EB020263EBE0739F
:1003E000009821464FEAE074B8EB000061EB04018D
:1003F000E9E783F000435BE781F0004158E72DE92E
:10040000FE4F81EA030404F0004421F0004100940F
:100410004FF0000B23F0004350EA01045ED052EA93
:1004200003045BD0C3F30A54C1F30A552C44A4F26D
:10043000F3340194A0FB0254C1F3130141F4801181
:10044000C3F3130343F4801301FB024400FB034E88
:10045000840A970A44EA815447EA8357A4FB076851
:1004600002958D0A05FB07854FEA932C04FB0C547B
:100470002705029D4FEA065847EA1637B5EB0805EF
:100480006EEB070C870E920E47EA811742EA831241
:10049000A7FB0201B6EB0B0164EB00042B0D43EA52
:1004A0000C335E1844EB1C50DA465146E7FB020160
:1004B000C5F313044FEA0B3343EA14534FEA0432F3
:1004C000019C43EA0603A4F10C040294009CCDE9CC
:1004D00000B4FFF79FFE03B0BDE8F08F0020014697
:1004E000F9E72DE9F04D81EA030404F0004B21F017
:1004F000004514464FF0000A23F0004150EA05027F
:1005000020D054EA01021DD0C5F30A570246C5F3B4
:100510001303C1F31300C1F30A5640F4801543F4EA
:100520008013A7EB0608101BD64608F2FD3873EBC4
:10053000050002D308F1010801E092185B41B8F10F
:10054000000F03DA00200146BDE8F08D00204FF4D3
:100550008011064684460EE0171B73EB050705D392
:10056000121B63EB050306434CEA010C49084FEAF2
:10057000300092185B4150EA0107EDD152EA0300C6
:1005800012D082EA040083EA0501084305D0101B5B
:10059000AB4106D20122002306E000224FF00043C7
:1005A00002E06FF0010253101AEB06004CEB085109
:1005B00010EB0A0041EB0B01BDE8F04DFFF71BBE4D
:1005C00070B521F0004303430CD0C1F30A55002459
:1005D000D5EB040564EB0403D617AD1AB34102DB77
:1005E0000020014670BD201841EB025170BD000093
:1005F00030B5041E71F1000404DB4FF000444042AA
:1006000064EB0101141E73F1000405DB1C464FF07E
:100610000043524263EB0403994208BF904230BD4D
:10062000064C074D06E0E06840F0010394E807003F
:1006300098471034AC42F6D3FFF77EFD206A0008DD
:10064000406A0008202A04DB203A00FA02F1002068
:1006500070479140C2F1200320FA03F31943904000
:100660007047202A06DBCB17203A41FA02F043EA12
:10067000E07306E041FA02F3D040C2F1200291405B
:100680000843194670472DE9F04D00231A461B1AFE
:100690008A4103DB00200146BDE8F08DC1F30A5218
:1006A000C1F3130141F480154FF0000BD10702D1C3
:1006B00000186D41521E0027044640F2FF113846D3
:1006C00001EB620A3E468046024600204FF480114C
:1006D000FFF781FDC2197141BB1846EB0100B4EB75
:1006E000030C75EB000C04D3E41A65EB0005174608
:1006F0000E46241908F101006D4180463428E3DDDF
:10070000F91946EB0600091BA84103D24FF0FF324E
:10071000134601E0002213461BEB070046EB0A518B
:10072000BDE8F04DFFF767BD00BFFEE770B51D25C2
:1007300042F2107404E0802002F00EFD00B103E0EC
:10074000201EA4F10104F6D100BF0CB9132070BD26
:10075000024802F0FBFC2846F9E70000FF07C00052
:10076000704770B5044694E80F0001F0F7FD70BDC6
:1007700000BFFEE710B500F049FE00F0FBFC00F002
:1007800003F800F04BFB10BD1FB500200090019056
:100790000290039040F2026002F0C4F82820019019
:1007A000042002900948808803906846FFF7D9FF2B
:1007B000002001900420029005488088054989881E
:1007C000084303906846FFF7CCFF1FBD6C00002074
:1007D0005C000020640000202DE9F04107460C4633
:1007E00015461E4639480078C8B92A2000F0A0F9FD
:1007F00007F1220188B200F0C3F905F1220188B2A5
:1008000000F0BEF92B2000F093F9204600F0B8F973
:10081000304600F0B5F92C2000F08AF954E02B485E
:100820000078012819D12A2000F082F907F122016D
:1008300088B200F0A5F905F1220188B200F0A0F914
:100840002B2000F075F9204600F09AF9304600F0B0
:1008500097F92C2000F06CF936E01C48007802284B
:1008600019D12A2000F064F9384600F089F92846A9
:1008700000F086F92B2000F05BF904F1220188B228
:1008800000F07EF906F1220188B200F079F92C20FF
:1008900000F04EF918E02A2000F04AF9384600F03E
:1008A0006FF9284600F06CF92B2000F041F904F1B3
:1008B000220188B200F064F906F1220188B200F04A
:1008C0005FF92C2000F034F9BDE8F081C40000206D
:1008D00070B504460D4616462B462246294620464C
:1008E000FFF77AFF304600F04BF970BD2DE9F04775
:1008F00004460D4616461F46DDF820A03B4632460C
:1009000029462046FFF768FFA8460FE0A14606E00B
:10091000504600F035F909F101001FFA80F9701C0A
:100920008145F5DB08F101001FFA80F8781C80454D
:10093000ECDBBDE8F087000008B510217A4801F033
:1009400009FD1E2001F0D4FC1021774801F004FDC0
:10095000642001F0CDFC642001F0CAFC112000F0FD
:10096000E7F8362000F0E4F87048007818B9002065
:1009700000F0F2F812E06D480078012803D1C020A1
:1009800000F0EAF80AE069480078022803D17020F4
:1009900000F0E2F802E0A02000F0DEF83A2000F0DB
:1009A000C7F8052000F0D8F8B22000F0C1F80C20FC
:1009B00000F0D2F80C2000F0CFF8002000F0CCF8C6
:1009C000332000F0C9F8332000F0C6F8B72000F05B
:1009D000AFF8352000F0C0F8BB2000F0A9F83520B2
:1009E00000F0BAF8C02000F0A3F82C2000F0B4F812
:1009F000C22000F09DF8012000F0AEF8C32000F006
:100A000097F8132000F0A8F8C42000F091F82020F7
:100A100000F0A2F8C62000F08BF80F2000F09CF840
:100A2000D02000F085F8A42000F096F8A12000F076
:100A300093F8D62000F07CF8A12000F08DF8E0209B
:100A400000F076F8F02000F087F8002000F084F83D
:100A5000042000F081F8042000F07EF8042000F06B
:100A60007BF8052000F078F8292000F075F8332095
:100A700000F072F83E2000F06FF8382000F06CF8BB
:100A8000122000F069F8122000F066F8282000F02B
:100A900063F8302000F060F8E12000F049F8F02021
:100AA00000F05AF8072000F057F80A2000F054F838
:100AB0000D2000F051F80B2000F04EF8072000F058
:100AC0004BF8282000F048F8332000F045F83E208D
:100AD00000F042F8362000F03FF8142000F03CF817
:100AE000142000F039F8292000F036F8322000F008
:100AF00033F8212000F01CF8112000F019F87820BC
:100B000001F0F6FB292000F013F80A2001F0F0FBB9
:100B10004CF21860AC234FF4A072002100900846FC
:100B2000FFF7E4FE08BD000000100140C4000020F3
:100B300010B504461021074801F00CFC08210548B7
:100B400001F008FC204600F0F7FA1021014801F0FE
:100B500003FC10BD0008014010B5044610210748F1
:100B600001F0F8FB0821054801F0F6FB204600F0F3
:100B7000E3FA1021014801F0EFFB10BD000801402D
:100B800010B504461021094801F0E4FB082107488C
:100B900001F0E2FB2012FFF7DFFFE0B2FFF7DCFF1E
:100BA0001021024801F0D8FB10BD000000080140F0
:100BB0002DE9FF5F80468A4617469B460F9D002021
:100BC0000290CDF80080284605EBD071C1F34704B0
:100BD0002046E21704EB5272D2102146E31704EBD1
:100BE0005373DB10A4EBC3030BB1012300E000231C
:100BF0001A446A4392B20192A7F12000C7B20AEBED
:100C00000500401E83B208EB0400401E82B251462C
:100C10004046FFF7E1FD002669E00C2D07D107EB08
:100C20004700354901EB8000805D03901BE0102DEB
:100C300005D1324800EB0710805D039013E0182DBA
:100C400007D107EB47002E4901EB0010805D0390B0
:100C500009E0202D05D12B4800EB8710805D039023
:100C600001E0BDE8FF9F4FF000093AE01098C8B9D5
:100C7000012000FA09F00399084018B15846FFF71F
:100C80007FFF02E00E98FFF77BFF0298401CC0B286
:100C90000290029890FBF4F104FB1100E8B90020E7
:100CA000029021E0012000FA09F00399084020B1E8
:100CB0005A4651464046FFF70BFE08F101001FFA65
:100CC00080F80098A8EB0000A04206D1DDF8008073
:100CD0000AF101001FFA80FA06E009F1010000F0B4
:100CE000FF09B9F1080FC1DB00BF701C86B2019883
:100CF000864292DB00BFB4E79A3500080E3A00083E
:100D0000FE3F0008CE5100082DE9FE4F06460F4673
:100D100014469846DDE90D5ADDF8309010E0CDE933
:100D2000015ACDF800902278434639463046FFF705
:100D30003FFF284605EBD07106EB61018EB2641CC3
:100D400020780028EBD1BDE8FE8F10B502F0E6F95F
:100D500000221146312001F0B9FB40F20A5001F0A7
:100D6000E1FD40F2015001F0DDFD10BD00BFFEE7E6
:100D7000704770473EB504460D46012018214CF2DD
:100D80001862CDE900210290681E00EB4000C0040B
:100D9000010C002322461846FFF7B6FF3EBD2DE9A1
:100DA000FE4F05468A4614461E46DDE90C784FF094
:100DB00001092EE02078252815D16078642812D109
:100DC00018200090A8F1010000EB4000C004010CC5
:100DD0003B463246284601F0E5FB0C2000FB07505D
:100DE00085B2A41C15E0012018214CF21862CDE94F
:100DF000002102902278A8F1010000EB4000C0041D
:100E0000010C00232846FFF7D3FE05F10C0085B244
:100E1000641C20780028CDD1BDE8FE8F1FB50020CE
:100E2000009001900290039040F2046001F07AFD7E
:100E300040F2056001F076FD4FF4C06001F072FDF4
:100E4000094800904FF4F8500390182001900420B6
:100E500002906846FFF785FC044800900420039048
:100E60006846FFF77EFC1FBD0010014000140140E2
:100E700010B5044694E8070002F002F9E06802F0B9
:100E8000A9F902F013F910BD10B586B01D24012098
:100E9000059002F077F918B91A24204606B010BD63
:100EA0003D480078042821D00220019000200290C3
:100EB000C02003900020049001A8FFF7D9FF01F0A3
:100EC00075FC0446002002F069F9344908600120ED
:100ED00002F064F931494860022002F05FF92F49BD
:100EE0008860032002F05AF92C49C8602A4800782B
:100EF00058B129480078012807D0274800780228EF
:100F000003D025480078032813D103200190002046
:100F10000290402003900020049001A8FFF7A8FF52
:100F200005A9032001F088FC04461D2C01D02046B1
:100F3000B4E71948007803282BD0BDF814001849ED
:100F4000088009200190BDF8140000040290C02020
:100F500003900020049001A8FFF78AFF01F026FC0F
:100F600004461D2C01D0204698E7002002F016F917
:100F70000C490860012002F011F90A49486002207A
:100F800002F00CF907498860032002F007F90549CF
:100F9000C860204682E70000B0000020DC0000208E
:100FA000BC000020CC00002010B51D24FFF7CDFEB2
:100FB00000F01AF804461D2C01D0204610BDFFF7A2
:100FC00063FF04461D2C01D02046F7E708230022CA
:100FD0001146104602F02AF8002002F019F802F03B
:100FE000C7F82046EAE700002DE9FF4700261D2448
:100FF000002700254FF0000A4FF000084FF00009CD
:101000004FF4957300221146104602F00FF80020AD
:1010100001F0FEFF02F0ACF8032002F0B9F802F094
:101020001FF800BF0FE00020009001900290039095
:101030006846FFF71DFFFFF779FB04461D2C00D122
:1010400003E0701CC6B24A2EEDDB00BF1D2C03D09E
:10105000204604B0BDE8F087082000904FF4D5701A
:10106000019040200290002003906846FFF700FFA7
:1010700001F02EFC1D2804D101202D4908704FF0ED
:1010800080483720009000200190402002900020EE
:1010900003906846FFF7ECFE372001F0EBFA1D28BD
:1010A00044D12EE037200090002001904020029093
:1010B000002003906846FFF7DBFE372001F0DAFAE4
:1010C00004461D2C01D02046C3E729200090194872
:1010D00048EA0000019040200290002003906846FA
:1010E000FFF7C6FE01F08AFB04461D2C01D0204606
:1010F000AFE7002002F052F80746012000EAD77956
:101100006D1CB9F1000F03D14FF6FF708542C9D3B2
:101110004FF6FF70854202D31824204699E707F066
:101120008040071E02D0022001490870204690E747
:10113000B00000200000108070B50446002504E0D7
:10114000681CC5B2C82D00DD05E00221084802F088
:1011500056F80028F4D000BF2146054802F04DF8AB
:1011600000BF0221024802F04AF80028F9D070BD01
:10117000003001401FB500200090019002900390C4
:1011800040F2026001F0CEFB40F2046001F0CAFBC5
:101190001C480090102001901B4880881B498988BA
:1011A00008430390042002906846FFF7DAFA1848D3
:1011B000006800901020019015488088039004205A
:1011C00002906846FFF7CDFA0E4800901820019073
:1011D00010488088104989880843039004200290B1
:1011E0006846FFF7BEFA0D480068009004200190A1
:1011F0000A48808803906846FFF7B3FA002004B0DD
:1012000010BD0000000801402C0000203400002028
:10121000540000203C0000204C000020440000202E
:1012200000B587B040F20C6001F07CFB002001901B
:101230004FF48270009000200290032005904FF43C
:10124000007003900820069000200490694604482E
:1012500001F0DDFF024801F0CBFF002007B000BD28
:10126000003001407047704708B52648006840F4D8
:101270007000244908602448006840F001002249B9
:10128000086000BF2048006800F002000028F9D084
:1012900000BF1D48406840F080001B4948600020A6
:1012A000009002E00098401C009000985028F9D36C
:1012B0001548406840F090001349486000200090B5
:1012C00002E00098401C009000985028F9D300BF1D
:1012D0000D48406820F003000B494860084600684C
:1012E0000A490840084908604FF41F008860084612
:1012F000006820F48020086000204860C86202F086
:1013000061F808BD88ED00E000100240FFFFF6FE26
:1013100010B50121164802F034F938B30121144800
:1013200002F02CF901201349087013480078401C82
:1013300011490870084600783C2817DB0020087027
:101340000E480078401C0D490870084600783C287B
:101350000CDB002008700A480078401C084908701F
:1013600008460078182801DB0020087010BD000036
:1013700000040040A8000020A6000020A5000020D6
:10138000A400002000B585B00020019002900390D9
:10139000049040F2017001F0C5FA1B4802F02AF8EF
:1013A0000020ADF8080042F20F70039042F6DF60B3
:1013B000ADF804000020ADF80A00ADF806008DF885
:1013C000100001A9104802F089F801210E4802F02E
:1013D000D5F801210C4802F0CDF81D208DF8000051
:1013E00000208DF8010003208DF802009DF80220F6
:1013F0009DF801109DF8000001F068F8024802F025
:1014000067F805B000BD0000000400401FB50020D3
:10141000009001900290039040F2026001F082FA85
:101420000C48006800900B488088039018200190B9
:10143000042002906846FFF794F90748006800907E
:101440000548808803900420019002906846FFF7C9
:1014500088F91FBD0C0000201400002000BFFEE72B
:1014600003B401984100009850EAC12018BF04203D
:101470004A0D18BF40F0010040F2FF72B2EB515F1D
:1014800008BF40F00200012808BF052002B07047E5
:101490002DE9F04D2DED040B2DED0E8B96B0DDE911
:1014A0002550279CDDF890A025F0004624F0004848
:1014B000BAF1000F14BF0121002101EB4502FC49E4
:1014C00053184A1093422AD3002814BF0123002343
:1014D00003EB44030B44F7498B4220D358EA000145
:1014E0009FEDF59B76D0DFF8D8B35D4503D1BAF117
:1014F000000F05D188E0BAF1000F08BF002100D02D
:10150000012101EB450111F5001F08D8002814BF87
:101510000121002101EB440111F5001F0BD99DEDC4
:10152000261B9DED240B16B0BDEC0E8B04B0BDE860
:10153000F04D00F069BE0027002DBCBFE149884591
:1015400021DAE1498845A8BF02271CDAC3451ADC25
:10155000DE4901EB2851142908DDC1F1340220FADB
:1015600002F101FA02F282420DD108E058B9C1F14C
:10157000140228FA02F101FA02F2424503D101F005
:101580000101C1F1020756EA0A0124D1002C22DA36
:10159000002D18BF022F01D0012F0AD0022000F029
:1015A0007FFE16B0BDEC0E8B04B0BDE8F04D00F030
:1015B00013BE022000F074FE00F00EFE51EC100B82
:1015C00081F0004141EC100B16B0BDEC0E8B04B065
:1015D000BDE8F08D18E09FEDBEAB9FEDBF8B0028FE
:1015E00071D1B848804522D105F1804010F58010B6
:1015F00008BFBAF1000F07D0B3450ADC002CA8BF22
:101600009DED260BE0DA0DE0B0EE490AF0EE690A36
:10161000DAE7002C06DA9DED260B51EC100B81F079
:1016200000416FE0AE48784490ED000BCCE7D84520
:101630004DD1002C48DA2EB186423AD1BAF1000FD2
:1016400042D126E0BAF1000F13D0022000F028FEAC
:1016500000F0F6FD8DED020B9DED240B8DED000BE2
:1016600010EE900A039961F31E0003909DED020BAA
:10167000AAE78DED02AB9DED240B1AEE901A10EE49
:10168000900A8DED000B61F31E0003909DED020B9F
:101690009AE78DED028B9DED240B18EE901A10EE5B
:1016A000900A8DED000B61F31E0003909DED020B7F
:1016B0008AE709DA9DED240B51EC190B53EC102B42
:1016C000FEF70FFF1EE020E09DED240B7CE7864235
:1016D0001BDAB4F1804F0DD0A4F10050B0F1FF50EF
:1016E00013D1002D11DB9DED240B51EC100B01F0FB
:1016F000A7FD07E09DED240B53EC102B51EC100BD4
:1017000000F0C2BC41EC100B5EE79DED240B51ECE8
:10171000100B00F013FEBAF1000FCDE90E0142D11B
:101720009FED710B46B3A6F1E040B0F17F600CD0A5
:101730005E4538D1002D00DAA7B3022F0CBF01207F
:101740004FF0FF30FEF710FDDCE7002D01DD002C2F
:101750000DDA002D01DD002C1FDB002D16DA002C28
:1017600014DB012F08BF9FED620B3FF42DAFB0EEED
:101770004A0AF0EE6A0A27E7022F18BF002D0CD0A4
:10178000012F0AD1002DFFF61FAF06E0002DB8BFD4
:10179000002C08DA012F3FF417AFB0EE480AF0EE44
:1017A000680A11E71BE0012000EBE57050EA070131
:1017B00015D0791EB0EE498AF0EE698A084308BF59
:1017C0009FED4D8B4E480025804570DD4D494E48BC
:1017D000884514DDB0420DDB002C19DB2FE0012021
:1017E00000F05EFD16B0BDEC0E8B04B0BDE8F04D10
:1017F00000F016BDB34502DC002C09DC1FE0864278
:1018000002DA002C1BDA03E05E452BDD002C16DD2E
:10181000022000F045FD00F013FD8DED020B53ECAE
:101820001A2B51EC180BFEF7EAFDCDE900010399E4
:10183000019861F31E0003909DED020BC4E60220A7
:1018400000F02EFD00F00CFD10EE901A18EE900A3C
:101850008DED020B8DED008B61F31E0003909DED6D
:10186000020BB1E69DED0E0B53EC192B51EC100B56
:10187000FEF7BFFD9FED260BCDE9080153EC102BC1
:101880009DED080B51EC100BFEF7B9FD9FED221BEF
:1018900053EC112BFEF7B0FD9DED081B53EC112B03
:1018A000FEF7ADFD9FED1E1B53EC112B3CE08CE0D1
:1018B000FFFF1F00FFFF0F00000000000000F03FCF
:1018C0000000F03F0000F07F0000404301FCFFFFFC
:1018D000000000000000F07F000000000000000099
:1018E000EE53000000000000000000000000008037
:1018F000000000000000F0FF000000000000F0BF4A
:101900000000E0410000F043FFFFEF3F0000000057
:10191000000000000000D03F555555555555D53FA6
:10192000000000000000E03FFEF766FD9DED080BA3
:1019300041EC1A0B53EC102B51EC100BFEF75FFD32
:1019400053EC1A2BFEF75BFD41EC1A0B9FEDFE0BDF
:1019500053EC102B9DED080B51EC100BFEF74FFDD7
:1019600041EC1B0B9FEDFA0B51EC1A0B53EC102BB7
:10197000FEF745FD41EC1A0B9FEDF70B53EC102BD6
:101980009DED080B51EC100BFEF739FD53EC1A2BB3
:10199000FEF72FFD41EC1A0B51EC1B0B53EC1A2BED
:1019A000FEF786FC0690CDE906519DED060B53EC43
:1019B0001B2B51EC100BFEF71CFD53EC1A2BFEF702
:1019C0001BFD41EC100B00F0A1B90020B6F5801F03
:1019D0000EDA9FEDE30B53EC102B9DED0E0B51EC4B
:1019E000100BFEF70CFDCDE90E016FF034000E4632
:1019F00000EB2650A0F2FF37C6F31300DA4940F09F
:101A00007F6646F040568842D8BF002408DDD7499B
:101A10008142C8BF012403DC0024A6F580167F1C88
:101A2000D348784400EBC4000F9690ED00CB9DEDB9
:101A30000E0B53EC1C2B51EC100BFEF7DAFC9DED5A
:101A40000E0B41EC1B0B53EC1C2B51EC100BFEF757
:101A50002FFC41EC100B51EC190B53EC102BFEF743
:101A600040FD41EC1D0B51EC1B0B53EC1D2BFEF705
:101A7000C6FC41EC1A0BBF488DED10AB78441095B5
:101A800090ED000B4FF0005040EA660000EB844000
:101A90008DED080B00F5002009909DED080B53EC2F
:101AA0001C2B51EC100BFEF7A4FC9DED0E1B53EC10
:101AB000112BFEF7A1FC41EC100B53EC102B9DED0C
:101AC000100B51EC100BFEF79AFC9DED080B41EC4E
:101AD0001C0B53EC102B9DED100B51EC100BFEF773
:101AE0008EFC53EC1B2BFEF787FC53EC1C2BFEF7F4
:101AF00080FC53EC1D2BFEF782FC41EC1C0B53ECDD
:101B00001A2B51EC1A0BFEF77AFC41EC1B0B9A488E
:101B10000621B0EE4B0AF0EE6B0A784400F0E0FAD2
:101B2000B0EE401AF0EE601AB0EE41DAF0EE61DA93
:101B300053EC1B2B51EC1B0BFEF761FC53EC1D2BE4
:101B4000FEF75DFC9DED100B41EC1B0B53EC1A2BCB
:101B500051EC100BFEF7ACFB53EC1C2BFEF74FFCCB
:101B600053EC1B2BFEF7A4FB9DED100B41EC1B0B64
:101B700053EC102B51EC100BFEF741FC41EC1D0B0C
:101B80009FED7FEB53EC1E2BFEF792FB53EC1B2BD0
:101B9000FEF78EFB0890CDE908519DED080B53EC44
:101BA0001E2B51EC100BFEF724FC53EC1D2BFEF703
:101BB00020FC53EC1B2BFEF71FFC9DED080B41ECAA
:101BC0001D0B53EC102B9DED100B51EC100BFEF781
:101BD00016FC41EC1B0B53EC1A2B51EC1D0BFEF7C2
:101BE0000EFC9DED080B41EC1A0B53EC102B51EC45
:101BF0001C0BFEF704FC53EC1A2BFEF759FB41ECCF
:101C00001A0B51EC1B0B53EC1A2BFEF751FB0C90EB
:101C1000CDE90C519DED0C0B53EC1B2B51EC100B33
:101C2000FEF7E7FB53EC1A2BFEF7E6FB41EC1B0B30
:101C30009FED550B53EC102B9DED0C0B51EC100B45
:101C4000FEF7DDFB41EC1A0B9FED510B51EC1B0B2A
:101C500053EC102BFEF7D3FB41EC1B0B9FED4E0B0F
:101C600053EC102B9DED0C0B51EC100BFEF7C7FB4A
:101C700053EC1B2BFEF71CFB41EC100B484878443F
:101C800000EBC40090ED001B51EC100B53EC112B3A
:101C9000FEF70EFB41EC1B0B3846FEF765FACDE96B
:101CA000080153EC1B2B51EC1A0BFEF701FB41EC26
:101CB000100B3C48784400EBC40090ED00CB51EC95
:101CC000100B53EC1C2BFEF7F3FA9DED081B53ECA5
:101CD000112BFEF7EDFA0690CDE906519DED080BAC
:101CE00053EC102B9DED060B51EC100BFEF781FB16
:101CF00053EC1C2BFEF77DFB53EC1A2BFEF779FB04
:101D000053EC1B2BFEF778FB41EC100B9DED261BD3
:101D100053EC102B8DED001B00959DED260B51EC27
:101D2000100BFEF76CFB9DED000B41EC1A0B53EC16
:101D3000102B9DED260B51EC100BFEF75AFB9DED81
:101D4000061B53EC112B2FE0000000604715F73FF6
:101D5000FE822B654715F73F44DF5DF80BAE543E1E
:101D600000000000000040438E9803007AB60B008C
:101D70006A4F0000984F0000A24E000000000000D3
:101D80000000000000000840000000E009C7EE3F2E
:101D9000FD033ADC09C7EE3FF5015B14E02F3EBEC0
:101DA0002E4D0000E84C0000FEF729FB53EC1A2BE7
:101DB000FEF77EFA9DED060B41EC1A0B53EC102B4F
:101DC0009DED000B51EC100BFEF719FBCDE90C015A
:101DD0009DED0C0B51EC1A0B53EC102BFEF768FA2F
:101DE000CDE902010C46AA498C422FDB611A084357
:101DF00018D19DED0C0B53EC102B9DED020B51EC0B
:101E0000100BFEF7F6FA41EC1B0B9FEDA30B51EC08
:101E10001A0B53EC102BFEF74BFA53EC1B2BFEF76F
:101E2000E7FB2DD2022000F03BFA00F009FA10EE99
:101E3000901A18EE900A8DED020B8DED008B61F378
:101E40001E0003909DED020BFFF7BEBB944A24F0E9
:101E50000041914214D39349214408437FF4EFACED
:101E60009DED0C0B53EC102B9DED020B51EC100B68
:101E7000FEF7BFFA53EC1A2BFEF7BAFB7FF6DFAC86
:101E800024F000408849894A002601EB2051824213
:101E90002BDA481C4FF4801121FA00F02044844AC8
:101EA000C0F30A517A44A1F2FF3192ED000B814A4E
:101EB0008DED080BCA4020EA0202C0F3130040F483
:101EC0008010C1F1140120FA01F60992002CB8BF6C
:101ED00076429DED080B53EC102B9DED0C0B51EC55
:101EE000100BFEF786FACDE90C019DED0C0B51ECC1
:101EF0001A0B53EC102BFEF7DBF99FED6F0B0890DC
:101F0000CDE9085153EC102B9DED080B51EC100B53
:101F1000FEF775FA41EC1B0B9FED690B53EC102B90
:101F20009DED080B51EC100BFEF769FA9DED0C0BC3
:101F300041EC1C0B53EC102B9DED080B51EC100BDE
:101F4000FEF757FA53EC1A2BFEF756FA9FED5E1B7D
:101F500053EC112BFEF753FA53EC1C2BFEF7A8F9A8
:101F600041EC1A0B51EC1B0B53EC1A2BFEF7A0F9AA
:101F7000CDE902019DED020B53EC1B2B51EC100B34
:101F8000FEF737FA53EC1A2BFEF736FA9DED020BEB
:101F900041EC1A0B53EC102B51EC100BFEF72FFAFF
:101FA000CDE908014A489DED080B0521784400F071
:101FB00097F89DED081B51EC100B53EC112BFEF71D
:101FC0001EFA9DED021B53EC112BFEF715FACDE91D
:101FD00006019DED020B53EC1A2B51EC100BFEF792
:101FE0000EFA53EC1A2BFEF763F99FED3B0B41EC15
:101FF0001A0B53EC102B9DED060B51EC100BFEF75A
:10200000F8F99DED060B41EC1B0B53EC102B9DEDED
:10201000020B51EC100BFEF7F2F953EC1B2BFEF701
:1020200060FA53EC1A2BFEF7E4F99DED021B53EC1A
:10203000112BFEF7DEF953EC192BFEF7DDF9CDE994
:10204000020101EB065001150029C8BF039015DC01
:102050009DED020B324651EC100BFEF7B1FAFFF783
:10206000FFF9042808BF00F0FBF832469DED020B93
:1020700051EC100BFEF7A4FACDE902019DED020B25
:1020800051EC180B53EC102BFEF7B9F9FFF73ABBE4
:102090000000904000000000FE822B654715973C31
:1020A00000CC904000346F3F01FCFFFF0000E03F98
:1020B000704B0000FFFF0F0000000000432EE63FC2
:1020C000396CA80C615C20BEEF39FAFE422EE63F67
:1020D000404A000000000000000000000000004036
:1020E00070B504462DED028B4D1E00EBC500B0EE21
:1020F000408AF0EE608A90ED000B35F0060017D0B4
:1021000053EC182B51EC100BFEF779F941EC100B46
:102110006D1E04EBC50090ED001B51EC100B53EC51
:10212000112BFEF7C5F841EC100B35F00600E7D196
:10213000022D36D0042D1CD0062D1CBFBDEC028B09
:1021400070BD53EC182B51EC100BFEF758F994EDC1
:102150000A1B53EC112BFEF7ABF853EC182BFEF7D0
:102160004EF994ED081B53EC112BFEF7A1F841EC4E
:10217000100B53EC182B51EC100BFEF740F994EDBB
:10218000061B53EC112BFEF793F853EC182BFEF7BC
:1021900036F994ED040B53EC102BFEF789F841EC63
:1021A000100B53EC182B51EC100BFEF728F994EDA3
:1021B000021B53EC112BFEF77BF853EC182BFEF7A8
:1021C0001EF994ED001B53EC112BFEF771F8BDECDA
:1021D000028B41EC100B70BD9FED070B10B553EC5B
:1021E000102B9FED070B51EC100BFEF77AF941EC29
:1021F000100B10BD000000000000000000000000F7
:10220000000000000000F03F10B553EC112B51EC22
:10221000100BFEF74DF841EC100B10BD0000000054
:102220009FED050B10B553EC102B51EC100BFEF786
:1022300058F941EC100B10BD000000000000000038
:102240009FED050B10B553EC102B51EC100BFEF766
:10225000D6F841EC100B10BD00000000000000702B
:102260009FED050B10B553EC102B51EC100BFEF746
:10227000C6F841EC100B10BD00000000000000107B
:1022800002E008C8121F08C1002AFAD1704770473F
:10229000002001E001C1121F002AFBD1704700009D
:1022A0000149086070470000C800002010B56FF0B9
:1022B000040001F08BF80A4800680A49B0FBF1F00D
:1022C000094908700846007800EB4001C1EBC010D6
:1022D0004FF6FF7101EAC0000449088010BD0000FC
:1022E0000000002000127A00AA000020AC000020AC
:1022F0000146114A12884A434FF0E0235A610022F6
:102300009A611A46126942F001021A6100BF4FF049
:10231000E022106900F001021AB100F48032002AB4
:10232000F5D04FF0E022126922F001024FF0E023D5
:102330001A6100229A617047AC00002082B0CDE99A
:10234000000121F0004001909DED000B02B051EC26
:10235000100B70474161704701617047F0B504464A
:1023600016460025002201F00F0501F0100747B1C5
:10237000042E05D145F00305E76B1F43E76300E03A
:10238000354300201EE0012787401F40C7B1226867
:102390004FEA800C0F2707FA0CF7BA43870005FABB
:1023A00007F73A43282904D1012787401F40676176
:1023B00005E0482903D1012787401F40276122609B
:1023C000471CB8B20828DED3082022E00127874046
:1023D0001F40E7B16268A0F108074FEA870C0F279A
:1023E00007FA0CF7BA43A0F10807BF0005FA07F790
:1023F0003A43282904D1012787401F40676105E03F
:10240000482903D1012787401F4027616260471C8C
:10241000B8B21028DAD3F0BD1CB54FF4E06000F07C
:10242000B7F8FFF743FFFEF7A5F9FEF7ABFFFEF79E
:10243000F7FEFEF781FA0A20FFF75AFF052500BFD5
:1024400000F000FD04461D2C03D0681E80B2051E5E
:10245000F6D125B101210CA0FEF78CFC03E001218F
:102460000FA0FEF787FC0DE0022004214FF4586313
:1024700011A2CDE900101E210020FEF790FC0520DE
:10248000FFF736FFF0E700000D0A20436172642079
:10249000696E69742073756363657373210D0A0037
:1024A0000D0A204361726420696E69742066616957
:1024B0006C6564210D0A00007468652066696775A3
:1024C00072652069733A25642E0000002DE9F04101
:1024D00003460D46164600240027A0462A480068F9
:1024E00000F4E060B0F5E06F03D100BF4FF00408E6
:1024F00030E02548006800F4E060B0F5C06F03D11B
:1025000001274FF0030825E01F48006800F4E06051
:10251000B0F5A06F02D10227B8461BE01A48006848
:1025200000F4E060B0F5806F03D103274FF001089D
:1025300010E01548006800F4E060B0F5407F03D17A
:1025400004274FF0000805E04FF4A06000F020F8E9
:102550000227B846C7F1040005FA00F4C8F10401E7
:102560000F20C8403040044324010848C45403F0FD
:102570001F01012088405911890001F1E021C1F8B3
:102580000001BDE8F08100000CED00E000E400E097
:1025900002490143024A1160704700000000FA0539
:1025A0000CED00E02DE9F04F2DED048B85B00546D4
:1025B0008B4616461F46DDF848804FF0000A002083
:1025C0000490002403903C4648E02046FDF7DDFDE2
:1025D00041EC190BB0EE491AF0EE691A9FED230B8E
:1025E000FEF756FFB0EE408AF0EE608A51EC180B11
:1025F000FDF7D8FDB6FBF0F100FB1169601EFDF799
:10260000B3FD41EC190BB0EE491AF0EE691A9FEDDB
:10261000170BFEF73DFFB0EE408AF0EE608A51ECFA
:10262000180BFDF7BFFDB9FBF0F000F0FF0A012029
:1026300018214CF21862CDE9002102900AF1300015
:10264000C2B2002359462846FEF7B2FA404608EBCC
:10265000D07105EB61018DB2601EC4B2002CB4DCF8
:1026600005B0BDEC048BBDE8F08F00000000000059
:1026700000002440F8B505461D270024002642F23C
:10268000107000901A48446B01E01948446B04F044
:1026900045000028F9D004F0010028B111270120DD
:1026A00000F054FD3846F8BD04F0040028B11327AB
:1026B000042000F04BFD3846F5E700F0DBFCA842B3
:1026C00002D008273846EEE70A4800F03FFD002018
:1026D00000F064FD06460848304010B91D27384612
:1026E000E1E7304600F00AF807463846DBE700002D
:1026F00000800140FF07C00008E0F9FD01461C20F2
:1027000001F000420AB100204EE001F080420AB11F
:10271000012049E001F000520AB1022044E001F03A
:1027200080520AB103203FE001F000620AB10420A8
:102730003AE001F080620AB1052035E001F08072D4
:102740000AB1062030E001F400020AB107202BE0B4
:1027500001F480020AB1082026E001F400120AB157
:10276000092021E001F480120AB10A201CE001F4E2
:1027700000220AB10B2017E001F480320AB10C20CC
:1027800012E001F400420AB10D200DE001F4804294
:102790000AB10E2008E001F400520AB10F2003E054
:1027A00001F0080202B110207047000070B51D252D
:1027B00000241048446B01E00E48446B04F04500CF
:1027C0000028F9D004F0010028B11125112000F0F3
:1027D000BDFC284670BD04F0040028B11325042078
:1027E00000F0B4FC2846F5E7034800F0AFFC2846AB
:1027F000F0E7000000800140FF07C00070B51D2514
:1028000000240B48446B01E00948446B04F0450088
:102810000028F9D004F0040028B11325042000F0AA
:1028200095FC284670BD034800F090FC2846F9E767
:1028300000800140FF07C0002DE9F04107460E4629
:102840000025A8462048456B01E01F48456B05F070
:1028500045000028F9D005F0010030B11124012015
:1028600000F074FC2046BDE8F08105F0040028B1BA
:102870001324042000F06AFC2046F4E700F0FAFB81
:10288000B84202D008242046EDE7104800F05EFC74
:10289000002000F083FC804608F4604020B94FEA35
:1028A000184030802046DEE704F4004008B10724D9
:1028B00008E004F4804008B1082403E004F4005068
:1028C00000B10B242046CEE700800140FF07C00086
:1028D00038B51C25002442F2107000901048446B5B
:1028E00004E00F48446B0098401E009004F045003F
:1028F00010B900980028F4D104F0040008B9009839
:1029000010B91325284638BD04F0400028B11D2514
:10291000402000F01BFC2846F5E72846F3E70000BE
:1029200000800140064A02EB9011096800F01F0385
:1029300001229A401143024B03EB90121160704741
:1029400000100240064A02EB9011096800F01F03D4
:1029500001229A409143024B03EB901211607047A1
:1029600000100240064A02EB9011096800F01F03B4
:1029700001229A401143024B03EB90121160704701
:102980000010024070B504461D2522480078052835
:1029900002D11B25284670BD1E48007838B11D485D
:1029A0000078012803D01B480078022830D1B4F504
:1029B000805F02D11B252846EDE7B4F5006F12D1E8
:1029C0004FF4802000F028F805461D2D20D1082363
:1029D00000221146104600F029FB204600F018FBAB
:1029E00000F0C6FB14E094B94FF4803000F014F806
:1029F00005461D2D0CD1082300221146104600F07B
:102A000015FB204600F004FB00F0B2FB00E01925A6
:102A10002846C0E7B000002070B505461D24002000
:102A200000F0BCFB00F0007010B10624204670BD21
:102A300036493748008800F033FA04461D2C01D08F
:102A40002046F4E7B5F5803F2CD130484068284057
:102A500028B32F48008801044022372000F010FBE3
:102A6000002000F0B7FB00F021FB3720FFF702FE4B
:102A700004461D2C01D02046D9E740220021062023
:102A800000F0FEFA002000F0A5FB00F00FFB06208E
:102A9000FFF7F0FD04461D2C02D02046C7E71A249C
:102AA0002046C4E7B5F5802F2CD11848406828404F
:102AB00028B31748008801044022372000F0E0FACC
:102AC000002000F087FB00F0F1FA3720FFF7D2FD7D
:102AD00004461D2C01D02046A9E7402202210620F1
:102AE00000F0CEFA002000F075FB00F0DFFA0620BF
:102AF000FFF7C0FD04461D2C02D0204697E71A249C
:102B0000204694E71924204691E70000B4000020F5
:102B1000BC00002030B501461D20002209B9192053
:102B200030BDA84B1B7881F83830A74B1B88A1F823
:102B30004430A64B1B681A0E0A70A44B1B68C3F3E3
:102B4000074213024B80A14B1B88C3F307224B881B
:102B500013434B809D4B1A7813064B609B4B5B686D
:102B60001A0E4B6843EA02434B60984B5B68C3F311
:102B700007424B6843EA02234B60944B9B88C3F3A4
:102B800007224B6813434B60904B1A790A729B687B
:102B90001A0E4A728D4B9B68C3F307421306CB6033
:102BA0008A4B1B89C3F30722CB6843EA0243CB60FD
:102BB000864B1A7ACB681343CB60844BDB681A0EC2
:102BC000CB681343CB60814BDB68C3F3074202F051
:102BD0000F034FF6FF7404EA03230B827B4B9B89A0
:102BE000C3F307220B8A13430B82784B1A7B5308DB
:102BF0008B74774B1B681A0E93090B75744B1B680B
:102C0000C3F307424A75724B1B88C3F307228A75C8
:102C10006F4B1A78CA755B681A0E14010C836C4BE3
:102C20005B68C3F307420B8B43EA12140C8302F078
:102C30000F048C76664B9B88C3F30722D409CC76AD
:102C4000C2F380140C77C2F340144C77C2F3001423
:102C50008C775C4B1B781BB15A4B1B78012B44D1F2
:102C600093071C0D0C625A4B1A790B6A43EA8204D3
:102C70000C62574B9B681A0E0B6A43EA92140C6263
:102C8000C2F3C20424235C5402F0070425235C54DD
:102C90004F4B9B68C3F30742540926235C54C2F38D
:102CA000820427235C5493075C0F28235C54484B11
:102CB0001B89C3F3072228235B5C43EAD214282331
:102CC0005C548C7E0123A3400B640B6A5B1CCB63BA
:102CD0002824645CA41C0125A540CB6B6B43CB630B
:102CE000D1E90F346343CB631DE0364B1B78022BD5
:102CF00019D1374B1A7993069C0A0C62344B9B68A6
:102D00001A0E0B6A43EA02240C62314B9B68C3F330
:102D100007420B6A13430B624FF400730B640B6A98
:102D20005B1CDB04CB63C2F3801429235C54930641
:102D30005C0E2A235C54264B1A7A2A235B5C43EAF6
:102D4000D2142A235C5402F07F042B235C54204BC2
:102D5000DB681A0ED4092C235C54C2F382042D23A1
:102D60005C5493071C0F2E235C54194BDB68C3F390
:102D700007422E235B5C43EA92142E235C54C2F379
:102D800040142F235C54124B9B89C3F30722D409B0
:102D900030235C54C2F3801431235C54C2F34014DA
:102DA00032235C54C2F3001433235C54C2F3810415
:102DB00081F83440064B1A7B540881F8354000BF37
:102DC000AEE60000B0000020BC000020DC000020C7
:102DD000CC00002070B504461D25210440220720A8
:102DE00000F04EF9002000F0F5F900F05FF907203F
:102DF000FFF740FC0546284670BD000070B504464C
:102E00001D2514B91925284670BD0D4800880104F8
:102E100040220D2000F034F9002000F0DBF900F032
:102E200045F90D20FFF726FC05461D2D01D028464B
:102E3000EAE7002000F0B2F920602846E4E700004D
:102E4000BC00002038B51D2400200090FEF7ACF82F
:102E500004461D2C03D11148FFF75CFE04461D2CCF
:102E600005D10E49B1F84400FFF7B4FF04466846A7
:102E7000FFF7C4FF04461D2C08D1009800F0007035
:102E800020B94FF40060FFF77DFD04461D2C03D1EF
:102E9000012000F0B1F80446204638BDEC000020C7
:102EA0002DE9FC4106460D461D24002000900190AE
:102EB000002740220821102000F0E2F8002000F056
:102EC00089F91020FFF7D6FB04461D2C02D02046BE
:102ED000BDE8FC8131044022372000F0D1F8002009
:102EE00000F078F900F0E2F83720FFF7C3FB044662
:102EF0001D2C01D02046EBE7302208214FF0FF3097
:102F000000F0DEF80221002000F0FAF800F014F9D9
:102F100040220021332000F0B3F8002000F05AF9DD
:102F200000F0C4F83320FFF7A5FB04461D2C01D0A8
:102F30002046CDE709E04FF4001000F00DF920B174
:102F400000F0D8F84DF827007F1C40F22A6000F00E
:102F500003F90028EFD0022000F0FEF828B1122477
:102F6000022000F0F3F82046B2E7082000F0F4F861
:102F700028B11424082000F0E9F82046A8E7202012
:102F800000F0EAF828B11624202000F0DFF82046EF
:102F90009EE74FF4007000F0DFF830B117244FF4D3
:102FA000007000F0D3F8204692E7124800F0CEF807
:102FB00001980006019901F47F4140EA012001993E
:102FC00001F47F0140EA1120019940EA1160286074
:102FD00000980006009901F47F4140EA0120009921
:102FE00001F47F0140EA1120009940EA1160686015
:102FF00020466DE7FF07C00001461D2009B10129E9
:1030000002D1024A116000E019207047C000002080
:103010000549496821F4C051034A51601146496885
:1030200001435160704700000080014030B5044604
:103030000020094D6868094D2840FF2B04D940F055
:103040000040A3F58075ABB244EA010515431D436A
:103050002843014D686030BD0080014000D9FF7FEA
:103060000348406840F480700149486070470000A0
:103070000080014001480069C0B2704700800140F3
:1030800030B503460020084CA4680024064DAC600F
:103090002C46A160E06820F0FF0043EA02042043D0
:1030A0002C46E06030BD0000008001400348C0684D
:1030B00040F480600149C860704700000080014012
:1030C00010B50B4B5B6A0023094C636223469B6A75
:1030D00003F07E43A3622346DB6A23F0F003E3623E
:1030E000234658629962DB6A1343E36210BD000015
:1030F0000080014001480068704700008080014066
:1031000002460020044BD86A20F0060042EA010380
:103110001843014BD86270470080014000200549E8
:10312000086048608860C86048628862C8628863D6
:10313000C8637047008001400348C06A40F0010046
:103140000149C8627047000000800140014988635E
:10315000704700000080014001460448406B084071
:1031600008B1012070470020FCE70000008001400A
:103170000348406820F480400149486070470000DF
:103180000080014001480068704700000080014055
:10319000014908607047000000800140014600209E
:1031A00031B1012907D0022908D003290CD108E048
:1031B000074A506909E0064A906906E0044AD06966
:1031C00003E0034A106A00E000BF00BF7047000040
:1031D000008001400549C96821F44071034AD1606B
:1031E0001146C9680143D16070470000008001406A
:1031F000016841F0400101607047C16070470246BC
:103200009068084008B1012070470020FCE70246A2
:103210000020106800F441500B6818434B681843B5
:103220008B681843CB6818430B6918434B691843E4
:103230008B6918431060D36923F40063D36170472E
:1032400000B52DED048B83B041EC190BFDF71BFA93
:1032500041EC180B18EE100A18EE901A8DED008B49
:10326000002818BF0120084320F00040C0F17F6013
:1032700000F1E040C00F14D019EE101A19EE900AB8
:103280008DED009B002918BF0121084320F000406C
:10329000C0F17F6000F1E040C00F04BF0120FEF7E5
:1032A000FFFF51EC180B03B0BDEC048B00BD000018
:1032B000002000213F4A126842F480323D4B1A60E0
:1032C00000BF401C3B4A126802F4003119B94FF6A6
:1032D000FF729042F5D1374A126802F400320AB9FF
:1032E00000BFFEE7334AD26942F08052314BDA61C7
:1032F000314A126842F440422F4B1A602D4A5268FC
:103300002C4B5A601A4652685A601A46526842F468
:1033100080625A601A46526822F440325A601A4655
:10332000526842F440325A601A465268234B1A409F
:10333000204B5A601A465268214B1A431D4B5A6063
:103340001A46126842F080721A6000BF194A126869
:1033500002F00072002AF9D0174A126842F4803253
:10336000154B1A6000BF144A526802F48032002ADA
:10337000F9D0114A126842F400320F4B1A6000BFB4
:103380000D4A526802F40032002AF9D0094A526804
:1033900022F00302074B5A601A46526842F00202BA
:1033A0005A6000BF034A526802F00802002AF9D0AE
:1033B000704700000010024000700040FFFFC3B7DC
:1033C0000000340810B5FFF773FF10BD042808D1C2
:1033D0004FF0E021096941F004014FF0E022116152
:1033E00007E04FF0E021096921F004014FF0E022ED
:1033F0001161704710B504463349601A8C4244D0BD
:103400000CDCB4F1804F1CD03048204410B3B0F530
:10341000806F28D0B0F5006F52D12DE0B0F5806FED
:103420003CD0B0F58E3F03D0B0F5923F48D13EE09E
:1034300040F20B30FFF796FA40F20B30FFF782FABA
:103440003FE04FF48060FFF78DFA4FF48060FFF7A4
:1034500079FA36E040F20140FFF784FA40F2014089
:10346000FFF770FA2DE040F20240FFF77BFA40F2DE
:103470000240FFF767FA24E040F20340FFF772FAD8
:1034800040F20340FFF75EFA1BE040F20440FFF712
:1034900069FA40F20440FFF755FA12E040F20540A5
:1034A000FFF760FA40F20540FFF74CFA09E040F2FE
:1034B0000D30FFF757FA40F20D30FFF743FA00E006
:1034C00000BF00BF10BD00000010004000FCFFBFA7
:1034D000016841F001010160704700000A888262C2
:1034E0001D4A90420ED0B0F1804F0BD01B4A904243
:1034F00008D01B4A904205D01A4A904202D01A4A7C
:1035000090420BD1026822F07002026002684B8880
:103510001A43026002688B881A4302608A68C2629A
:10352000124A90420AD0124A904207D0026822F40E
:10353000407202600268CB881A430260064A9042D9
:1035400002D0094A904201D10A7B0263426942F0EB
:103550000102426170470000002C0140000400405D
:1035600000080040000C0040003401400010004002
:1035700000140040C2680A43C2607047CA43026137
:1035800070470246D06800EA01031069084010B194
:103590000BB1012070470020FCE700000000000094
:1035A0000000000000000000040404040400000403
:1035B000000014140A0000000000000000000000D9
:1035C0000A0A1F0A0A1F0A0A000000040E1505064F
:1035D0000C14150E0400000012150D152E2C2A12C5
:1035E00000000000040A0A36151529160000020220
:1035F000010000000000000000001008080404049E
:103600000404080810000204040808080808040458
:10361000020000000004150E0E150400000000005A
:103620000008083E0808000000000000000000003C
:1036300000000202010000000000003F0000000046
:103640000000000000000000000000020000002058
:103650001010080804040202010000000E111111EC
:103660001111110E00000000040604040404040EED
:10367000000000000E1111080402011F00000000EC
:103680000E11100C1010110E00000000080C0C0A96
:10369000091F081C000000001F01010F1110110E6E
:1036A000000000000C12010D1311110E00000000AB
:1036B0001E10080804040404000000000E11110E7E
:1036C0001111110E000000000E111119161009063B
:1036D00000000000000004000000000400000000E2
:1036E00000000004000000040400000010080402B0
:1036F000020408100000000000003F003F0000002E
:10370000000000000204081010080402000000007D
:103710000E11110804040004000000001C22292DD1
:103720002D1D221C0000000004040C0A0A1E123386
:10373000000000000F12120E1212120F0000000003
:103740001E1101010101110E000000000F121212E2
:103750001212120F000000001F120A0E0A02121F9E
:10376000000000001F120A0E0A02020700000000FB
:103770001C1201013911120C000000003312121E3C
:1037800012121233000000001F0404040404041F7A
:10379000000000003E0808080808080809070000A3
:1037A00037120A060A12123700000000070202024E
:1037B0000202223F000000003B1B1B1B15151535A4
:1037C000000000003B1216161A1A12170000000023
:1037D0000E1111111111110E000000000F12120E26
:1037E00002020207000000000E1111111117190E3C
:1037F000180000000F12120E0A121237000000000B
:103800001E1101060810110F000000001F1504040E
:103810000404040E00000000331212121212120CE3
:10382000000000003312120A0A0C04040000000019
:10383000151515150E0A0A0A000000001B0A0A04D5
:10384000040A0A1B000000001B0A0A0A0404040EF2
:10385000000000001F0908040402121F00001C04DD
:1038600004040404040404041C000002020404040C
:103870000808081010000E080808080808080808BA
:103880000E00040A0000000000000000000000001C
:103890000000000000000000003F020400000000E3
:1038A00000000000000000000000000C121C123C90
:1038B000000000030202020E1212120E00000000AD
:1038C0000000001C1202120C000000181010101C46
:1038D0001212123C000000000000000C121E021C1C
:1038E000000000182404041E0404041E000000004C
:1038F0000000003C120C021C221C00030202020EFB
:103900001212123700000004040000060404040E22
:10391000000000080800000C080808080807000359
:103920000202021A0A060A13000000070404040433
:103930000404041F000000000000000F15151515F9
:10394000000000000000000F1212123700000000FB
:103950000000000C1212120C000000000000000F0A
:103960001212120E020700000000001C1212121C9C
:10397000103800000000001B0602020700000000D3
:103980000000001E020C101E000000000004041EB7
:103990000404041C000000000000001B1212123C72
:1039A000000000000000001B0A0A040400000000E0
:1039B00000000015150E0A0A000000000000001BA0
:1039C0000A040A1B000000000000003312120C0859
:1039D000040300000000001E0804041E0000180874
:1039E0000808080C0808080818000808080808084B
:1039F0000808080808080604040404080404040469
:103A00000600160900000000000000000000000091
:103A100000000000000000000000000000000000A6
:103A200000080808080808080000181800000048E6
:103A30006C241200000000000000000000000000E4
:103A4000002424247F1212127F12121200000000A0
:103A5000081C2A2A0A0C1828282A2A1C08080000F0
:103A60000022251515152A58545454220000000030
:103A7000000C1212120A76252911916E0000000620
:103A800006040300000000000000000000000040E9
:103A90002010100808080808081010204000000234
:103AA000040808101010101010080804020000008C
:103AB000000008086B1C1C6B0808000000000000D8
:103AC0000000080808087F08080808000000000037
:103AD00000000000000000000000060604030000D3
:103AE000000000000000FE000000000000000000D8
:103AF00000000000000000000000060600000000BA
:103B00008040402020101008080404020200000039
:103B1000001824424242424242422418000000005F
:103B200000080E08080808080808083E0000000001
:103B3000003C4242422020100804427E0000000067
:103B4000003C4242201820404042221C000000005D
:103B500000203028242422227E202078000000002B
:103B6000007E0202021A26404042221C0000000091
:103B700000382402021A26424242241800000000A3
:103B8000007E222210100808080808080000000023
:103B9000003C4242422418244242423C00000000C1
:103BA00000182442424264584040241C0000000097
:103BB00000000000181800000000181800000000A5
:103BC00000000000000800000000000808040000D9
:103BD00000402010080402040810204000000000EB
:103BE000000000007F0000007F00000000000000D7
:103BF0000002040810204020100804020000000009
:103C0000003C4242464020101000181800000000FE
:103C1000001C225A555555552D42221C000000000B
:103C2000000808181414243C224242E70000000057
:103C3000001F2222221E22424242221F00000000B8
:103C4000007C4242010101010142221C00000000EF
:103C5000001F2242424242424242221F0000000014
:103C6000003F4212121E12120242423F00000000A8
:103C7000003F4212121E1212020202070000000050
:103C8000003C2222010101712122221C00000000BF
:103C900000E7424242427E42424242E700000000C8
:103CA000003E0808080808080808083E0000000050
:103CB000007C10101010101010101010110F0000C8
:103CC000007722120A0E0A12122222770000000048
:103CD00000070202020202020202427F000000000C
:103CE0000077363636362A2A2A2A2A6B0000000048
:103CF00000E346464A4A52525262624700000000C0
:103D0000001C2241414141414141221C0000000070
:103D1000003F424242423E0202020207000000000F
:103D2000001C2241414141414D53321C60000000C2
:103D3000003F4242423E1212222242C700000000CF
:103D4000007C4242020418204042423E0000000033
:103D5000007F4908080808080808081C000000003F
:103D600000E74242424242424242423C00000000DE
:103D700000E742422224241414180808000000001E
:103D8000006B49494949555536222222000000005E
:103D900000E7422424181818242442E700000000F9
:103DA00000772222141408080808081C00000000EC
:103DB000007E2120101008040442423F00000078D9
:103DC000080808080808080808080808780000001B
:103DD0000202040408080810102020204040001EA1
:103DE0001010101010101010101010101E000038BD
:103DF000440000000000000000000000000000007F
:103E000000000000000000000000000000FF0006AD
:103E1000080000000000000000000000000000009A
:103E200000000000003C4278444242FC00000000D8
:103E300000030202021A26424242261A0000000033
:103E40000000000000384402020244380000000074
:103E50000060404040784442424264D80000000084
:103E600000000000003C427E0202423C00000000D4
:103E700000F08808087E08080808083E00000000D6
:103E800000000000007C22221C023C42423C000058
:103E900000030202023A4642424242E700000000AA
:103EA000000C0C00000E08080808083E0000000086
:103EB000003030000038202020202020221E00006A
:103EC000000302020272120A16122277000000009A
:103ED000000E0808080808080808083E000000004E
:103EE00000000000007F9292929292B700000000C2
:103EF00000000000003B4642424242E70000000052
:103F000000000000003C42424242423C00000000EF
:103F100000000000001B26424242221E0207000051
:103F200000000000007844424242447840E0000033
:103F30000000000000774C040404041F000000008F
:103F400000000000007C42023C40423E00000000B5
:103F500000000008083E08080808083000000000BB
:103F60000000000000634242424262DC00000000A8
:103F70000000000000E742242414080800000000AC
:103F80000000000000EB49495555222200000000C6
:103F900000000000007624181818246E00000000AD
:103FA0000000000000E7422424141808080700005D
:103FB00000000000007E22100808447E000000C0BF
:103FC000202020202010202020202020C0001010A1
:103FD00010101010101010101010101010100006FB
:103FE00008080808081008080808080806000C3225
:103FF000C2000000000000000000000000000000FF
:1040000000000000000000000000000000000000B0
:1040100000000000000000000000000000000000A0
:104020000000000000000000000000000000000090
:1040300000000000000060006000600060006000A0
:104040006000600040002000200020000000000010
:104050000000600060006000000000000000000040
:1040600000006006600630039801880044000000EC
:104070000000000000000000000000000000000040
:104080000000000000000000000000000000000030
:104090000000000000001002100210021002FE07D3
:1040A000FE0708020801080108010801FE07FE07D3
:1040B00004010401040104010000000000000000EC
:1040C0000000000040004000F00158034C03CC0306
:1040D0004C0058007000E000C001C00140034C03D8
:1040E0005C034C034801F000400040000000000069
:1040F0000000000000000E010A01910091009100F3
:10410000510051003A00AE03A0025004500448048C
:1041100048044804840284030000000000000000FA
:1041200000000000000038006C006C006C006C00A7
:104130006C002C0098071C011A0133013301630144
:10414000E300C308C6093C070000000000000000AF
:1041500000000C001C00100010000800040000000B
:10416000000000000000000000000000000000004F
:10417000000000000000000000000000000000003F
:1041800000000004000200018000800040004000A8
:1041900020002000200020002000200020004000FF
:1041A00040008000800000010002000400000000C8
:1041B0000000020004000800100010002000200091
:1041C000400040004000400040004000400020000F
:1041D0002000100010000800040002000000000091
:1041E000000000000000000000004000C00040008F
:1041F000460C4E0FD001F0015E0F460C400040000F
:10420000400000000000000000000000000000006E
:10421000000000000000000000000000400040001E
:10422000400040004000FE0F4000400040004000C1
:10423000400000000000000000000000000000003E
:10424000000000000000000000000000000000006E
:10425000000000000000000000000000000000005E
:1042600000000C001C0010001000080004000000FA
:10427000000000000000000000000000000000003E
:10428000000000000000FE07000000000000000029
:10429000000000000000000000000000000000001E
:1042A000000000000000000000000000000000000E
:1042B00000000000000000000000000000000000FE
:1042C00000001C001C001C0000000000000000009A
:1042D000000000040006000200030001000180004D
:1042E000800040004000600020002000100010000E
:1042F000080008000C000400060002000000000096
:104300000000000000000000F00098010C030C0306
:10431000060606060606060606060606060606063D
:104320000C030C039801F0000000000000000000E6
:10433000000000000000000040007C006000600001
:10434000600060006000600060006000600060006D
:10435000600060006000FC0300000000000000003E
:104360000000000000000000F800840102030603C2
:104370000603000300018001C0006000200010005F
:10438000080204020602FE03000000000000000014
:1043900000000000000000007800C60086018601D1
:1043A00080018001C0007000800100010003000353
:1043B000060306038601F80000000000000000006C
:1043C000000000000000000080018001C001A00189
:1043D000A00190018801880184018201FE0F800103
:1043E000800180018001E007000000000000000063
:1043F0000000000000000000FC03040004000400B2
:1044000004000400F4008C0104030003000306030D
:10441000060382018401F800000000000000000093
:104420000000000000000000E00118030C030C0075
:1044300004000600E60116030E060606060606063A
:1044400004060C021803F000000000000000000049
:104450000000000000000000F8070C060402040140
:10446000000100018000800040004000400060002A
:1044700060006000600060000000000000000000BC
:104480000000000000000000F8010C03060606060C
:1044900006060C021C03F000C8010C030606060603
:1044A000060606060C03F0010000000000000000F4
:1044B0000000000000000000F0000C010C030602E8
:1044C00006060606060606078C06780600060003A2
:1044D00000030C018C0178000000000000000000C7
:1044E00000000000000000000000000000000000CC
:1044F0000000E000E000E00000000000000000001C
:104500000000E000E000E00000000000000000000B
:10451000000000000000000000000000000000009B
:1045200000006000600000000000000000000000CB
:10453000000000006000600040002000200000003B
:1045400000000000000000040002000180004000A4
:1045500020001000080004000800100020004000A7
:1045600080000001000200040000000000000000C4
:10457000000000000000000000000000000000003B
:104580000000FE07000000000000FE070000000021
:10459000000000000000000000000000000000001B
:1045A000000000000000040008001000200040008F
:1045B00080000001000200040002000180004000B1
:1045C00020001000080004000000000000000000AF
:1045D0000000000000000000E0031806040C040CBA
:1045E0000C0C0C0C00078001400040004000000053
:1045F0000000E000E000E00000000000000000001B
:10460000000000000000E00018030C02CC05640567
:104610006605A605B604B604B604B604B602E401FF
:104620000C040C021803F000000000000000000061
:104630000000000000000000600060005000D0009A
:1046400090009000880088010801F8010403040329
:104650000402020202060F0F00000000000000002A
:104660000000000000000000FE008C030C030C039F
:104670000C030C038C01FC000C030C020C060C0652
:104680000C060C060C03FE010000000000000000F8
:104690000000000000000000E00318030C060C04FA
:1046A00004040600060006000600060006000604D4
:1046B0000C040C021803F0000000000000000000D1
:1046C00000000000000000007F008C010C030C03C0
:1046D0000C060C060C060C060C060C060C060C064A
:1046E0000C030C038C017F000000000000000000A0
:1046F0000000000000000000FF030603060406049B
:10470000060086008600FE00860086008600060001
:10471000060406040602FF0300000000000000007B
:104720000000000000000000FF030603060406046A
:10473000060086008600FE008600860086000600D1
:104740000600060006001F00000000000000000038
:104750000000000000000000F00018010C020C0234
:1047600004020600060006000600C60F0603060344
:104770000C030C031803F000000000000000000010
:1047800000000000000000000F0F060606060606E7
:10479000060606060606FE070606060606060606C0
:1047A0000606060606060F0F0000000000000000C7
:1047B0000000000000000000FC03600060006000DA
:1047C00060006000600060006000600060006000E9
:1047D000600060006000FC030000000000000000BA
:1047E0000000000000000000F807C000C000C0008A
:1047F000C000C000C000C000C000C000C000C000B9
:10480000C000C000C000C000C60066003C00000040
:104810000000000000000000CF038601C600460033
:104820002600160036002E006E004600C6008600E8
:104830008601060106038F0700000000000000004B
:1048400000000000000000001F0006000600060037
:104850000600060006000600060006000600060028
:10486000060406040602FF0300000000000000002A
:1048700000000000000000000707860386038E0387
:104880008E034E034E034A035A035A033A0332037C
:10489000320332031203870700000000000000000B
:1048A00000000000000000008E0F0C021C021C0221
:1048B00034023402640264024402C40284028403A7
:1048C0008403040304031F02000000000000000032
:1048D0000000000000000000F00098010C030C0232
:1048E0000606060606060606060606060606060668
:1048F0000C020C039801F000000000000000000012
:104900000000000000000000FF0006030606060687
:104910000606060606068603FE00060006000600DA
:104920000600060006001F00000000000000000056
:104930000000000000000000F00098010C030C02D1
:104940000606060606060606060606060606760697
:104950004C02CC039801F000800700030000000027
:104960000000000000000000FF0106030606060626
:10497000060606060603FE004600C60086008601FF
:104980000603060306060F0E0000000000000000EC
:104990000000000000000000F8020C0306020602FE
:1049A00006000E003C00F800E0038003000702064A
:1049B000020606060C03F0010000000000000000E3
:1049C0000000000000000000FE07620461086108AA
:1049D00060006000600060006000600060006000D7
:1049E000600060006000F8010000000000000000AE
:1049F00000000000000000001E070C020C020C0268
:104A00000C020C020C020C020C020C020C020C0236
:104A10000C020C021801F000000000000000000071
:104A200000000000000000000F070602040104015E
:104A30000C010C018800880098009800500050007C
:104A40007000300020002000000000000000000086
:104A50000000000000000000F70E6204420446045B
:104A6000460464026402E402E4029C029C01980190
:104A70009801880188008800000000000000000004
:104A800000000000000000009E070C010801180152
:104A90009000B0006000200060006000D000900036
:104AA0008801080104038E070000000000000000D8
:104AB00000000000000000000F0F060404020C02BA
:104AC00008011801B800B0007000600060006000CC
:104AD000600060006000F8010000000000000000BD
:104AE0000000000000000000FC070C0206030201A9
:104AF00080018000400040002000200010001800CD
:104B000008040C040402FE03000000000000000082
:104B10000000E003200020002000200020002000F2
:104B20002000200020002000200020002000200085
:104B300020002000200020002000E00300000000F2
:104B4000000000000000040004000800080010003D
:104B5000100010002000200040004000C000800035
:104B600080000001000100020002000200040000B9
:104B700000007C0040004000400040004000400039
:104B80004000400040004000400040004000400025
:104B9000400040004000400040007C000000000059
:104BA000600090000801000000000000000000000C
:104BB00000000000000000000000000000000000F5
:104BC00000000000000000000000000000000000E5
:104BD00000000000000000000000000000000000D5
:104BE00000000000000000000000000000000000C5
:104BF000000000000000000000000000FF0F0000A7
:104C0000000018006000000000000000000000002C
:104C10000000000000000000000000000000000094
:104C20000000000000000000000000000000000084
:104C30000000000000000000000000000000000074
:104C40000000F0010C030C030003E0031C030E033F
:104C5000060306038E0B7C0E00000000000000001F
:104C600000000000000008000E000C000C000C000A
:104C70000C00CC013C031C060C060C060C060C06B2
:104C80000C060C021C03E401000000000000000000
:104C90000000000000000000000000000000000014
:104CA0000000F0008C018C01860106000600060061
:104CB00006020C020C01F0000000000000000000E1
:104CC0000000000000000002C00300030003000316
:104CD000000378038C030C03060306030603060394
:104CE000060304038C0778010000000000000000A8
:104CF00000000000000000000000000000000000B4
:104D00000000E001180308020C060C06FC070C006A
:104D10000C0018041802E001000000000000000070
:104D20000000000000000000C003600630063000F4
:104D30003000FE0130003000300030003000300024
:104D4000300030003000FC010000000000000000D6
:104D50000000000000000000000000000000000053
:104D60000000F007D8068C018C018C019801F80036
:104D70000C00FC00CC03060306038E03F8000000C1
:104D800000000000000008000E000C000C000C00E9
:104D90000C00EC011C030C030C030C030C030C03B0
:104DA0000C030C030C039E07000000000000000031
:104DB0000000000000000000600060000000000033
:104DC00040007C00600060006000600060006000E7
:104DD000600060006000FC030000000000000000B4
:104DE0000000000000000000C001C0010000000041
:104DF0000001F001800180018001800180018001BB
:104E000080018001800180018001CC007C000000D5
:104E100000000000000008000E000C000C000C0058
:104E20000C008C038C008C004C006C005C008C002F
:104E30008C010C010C039E07000000000000000024
:104E400000000000000040007C0060006000600086
:104E50006000600060006000600060006000600052
:104E6000600060006000FC03000000000000000023
:104E70000000000000000000000000000000000032
:104E800000003707EE0666066606660666066606D4
:104E9000660666066606FF0F0000000000000000C0
:104EA0000000000000000000000000000000000002
:104EB0000000EE011C030C030C030C030C030C0399
:104EC0000C030C030C039E07000000000000000010
:104ED00000000000000000000000000000000000D2
:104EE0000000F00098010C030606060606060606FA
:104EF00006060C030C03F000000000000000000098
:104F000000000000000000000000000000000000A1
:104F10000000EE011C030C060C060C060C060C0629
:104F20000C060C031C03EC010C000C003E000000FE
:104F30000000000000000000000000000000000071
:104F4000000078028C030C03060306030603060325
:104F5000060304038C03780300030003C00700006A
:104F60000000000000000000000000000000000041
:104F700000009F0358063806180018001800180093
:104F8000180018001800FF000000000000000000DA
:104F90000000000000000000000000000000000011
:104FA0000000F0031C030C020C023800F000C003E8
:104FB000040304038C03FC01000000000000000057
:104FC0000000000000000000000020002000300071
:104FD0003000FE0130003000300030003000300082
:104FE000300030023002E00100000000000000004C
:104FF00000000000000000000000000000000000B1
:1050000008028E030C030C030C030C030C030C03AB
:105010000C030C039C077801000000000000000056
:105020000000000000000000000000000000000080
:1050300000001E070C020801080118019000B000D2
:10504000B0006000600020000000000000000000D0
:105050000000000000000000000000000000000050
:105060000000F70E6204460464026402EC029C0134
:10507000980198019801080000000000000000005D
:105080000000000000000000000000000000000020
:105090000000BC0718011001B00060006000E000D3
:1050A0009000080108039E070000000000000000B7
:1050B00000000000000000000000000000000000F0
:1050C00000009E0708010801080190009000B00050
:1050D0006000600060002000200024001C00000030
:1050E00000000000000000000000000000000000C0
:1050F0000000FC018401C400440060002000300076
:10510000180208020C03FC0100000000000000006F
:10511000000000038000800080008000800080008C
:10512000800080004000200040008000800080005F
:1051300080008000800080008000000300004000AC
:10514000400040004000400040004000400040005F
:10515000400040004000400040004000400040004F
:10516000400040004000400040004000400000007F
:1051700000000C00100010001000100010001000C3
:10518000100010002000400020001000100010004F
:10519000100010001000100010000C0000000000B3
:1051A0001C002204C2048003000000000000000074
:1051B00000000000000000000000000000000000EF
:1051C00000000000000000000000000000000000DF
:1051D00000000000000000000000000000000000CF
:1051E00000000000000000000000000000000000BF
:1051F00000000000000000000000000000000000AF
:10520000000000000000000000000000000000009E
:105210000000000000000000C001C001C001C0018A
:10522000C001C001C00180008000800080008000BB
:105230008000800000000000000000008001C0032A
:10524000C00380010000000000000000000000001A
:1052500000000000E01CE01CF01E700E3807180370
:1052600008018400000000000000000000000000B1
:10527000000000000000000000000000000000002E
:10528000000000000000000000000000000000001E
:10529000000000000000000000002010201020107E
:1052A00020102010FE7FFE7F100810081008100844
:1052B000100810081008FE7FFE7F08040804080488
:1052C00008040804000000000000000000000000C6
:1052D00000000000000000010001C007601910314B
:1052E00018311839183938017001E001C0038007FE
:1052F000000F001D003900311C311C310C310C1124
:10530000180DE0070001000100010000000000008E
:10531000000000000000000000001C1036186308A8
:10532000630C63046304630263026301361D9C37EC
:1053300080228063406340632063206330631022D7
:105340001836081C000000000000000000000000EB
:1053500000000000000000000000F00098018C0137
:105360008C018C018C018C00CC007800183E1C084C
:105370003608320863046304C304C303834306434B
:105380008E26781C000000000000000000000000D5
:10539000000000001C003C003C0030003000100009
:1053A0000C000600000000000000000000000000EB
:1053B00000000000000000000000000000000000ED
:1053C00000000000000000000000000000000000DD
:1053D000000000000040002000100008000C000445
:1053E00000060003000300038001800180018001AA
:1053F000800180018001800100030003000300069A
:105400000006000C00080010002000400000000012
:10541000000000000200040008001000300020001E
:105420006000C000C000C0008001800180018001D8
:105430008001800180018001C000C000C0006000C8
:1054400060003000100008000400020000000000AE
:10545000000000000000000000000000000000014B
:105460008003800300011C713C79783DC007000176
:10547000C007783D3C791C710001800380038001E6
:10548000000000000000000000000000000000001C
:10549000000000000000000000000000000000000C
:1054A0000001000100010001000100010001FC7F7A
:1054B00000010001000100010001000100010000E5
:1054C00000000000000000000000000000000000DC
:1054D00000000000000000000000000000000000CC
:1054E00000000000000000000000000000000000BC
:1054F00000000000000000000000000000001C0090
:105500003C003C003000300010000C0006000000A1
:10551000000000000000000000000000000000008B
:105520000000000000000000000000000000FE7FFE
:10553000000000000000000000000000000000006B
:10554000000000000000000000000000000000005B
:10555000000000000000000000000000000000004B
:10556000000000000000000000000000000000003B
:1055700000000000000000000000000018003C00D7
:105580003C001800000000000000000000000000C7
:1055900000000000004000600020003000100018F3
:1055A0000008000C00040006000200030001800156
:1055B0008000C00040006000200030001000180093
:1055C00008000C00040006000200000000000000BB
:1055D00000000000000000000000C007600C301850
:1055E0001830183018200C600C600C600C600C60D7
:1055F0000C600C600C600C601820183018303018EB
:10560000600CC00700000000000000000000000067
:105610000000000000000000000000018001F8010F
:105620008001800180018001800180018001800172
:105630008001800180018001800180018001800162
:10564000C003F81F00000000000000000000000080
:1056500000000000000000000000E007101C081817
:10566000043004300C300C30003000180008000406
:10567000000200018000400020201020082004309B
:10568000FC1FFC1F000000000000000000000000E4
:1056900000000000000000000000E003180E0C0CE9
:1056A0000C180C180C180018000C0006C003000E93
:1056B00000180010003000300C300C300C100C18AA
:1056C000180CE003000000000000000000000000D3
:1056D00000000000000000000000000C000E000EA2
:1056E000000F800E800E400E600E200E100E100E69
:1056F000080E040E040EFE7F000E000E000E000EBB
:10570000000E000EC07F000000000000000000003E
:1057100000000000000000000000F03FF03F10001B
:105720001000100008000800C807280C18180810FE
:1057300000300030003000300C300C3004180418F9
:10574000080CF00300000000000000000000000052
:1057500000000000000000000000800FC01020309A
:1057600010301800180008000C008C0F6C183C302A
:105770001C600C600C600C600C60186018203030ED
:105780006018C007000000000000000000000000DA
:1057900000000000000000000000F83FF83F1C106F
:1057A0000C080408040400040002000200010001C7
:1057B0000001800080008000C000C000C000C00068
:1057C000C000C00000000000000000000000000059
:1057D00000000000000000000000E007300C181876
:1057E0000C300C300C301C3038187008E007B00753
:1057F000180E0C1C063806300630063006300C1821
:10580000180CE00300000000000000000000000091
:1058100000000000000000000000E00318040C0875
:105820000C180610063006300630063006380C3CE0
:105830001836F03100300018001800180C0C0C0657
:105840000C03F00100000000000000000000000058
:105850000000000000000000000000000000000048
:1058600000000000000000008001C003C0038001B0
:105870000000000000000000000000008001C003E4
:10588000C0038001000000000000000000000000D4
:105890000000000000000000000000000000000008
:1058A0000000000000000000C000C0000000000078
:1058B00000000000000000000000000000000000E8
:1058C000C000C000800080004000400000000000D8
:1058D000000000000000000000200010000800048C
:1058E000000600038001C0006000300018000C00BA
:1058F000180030006000C0008001000300060004B2
:10590000000800100020000000000000000000005F
:105910000000000000000000000000000000000087
:105920000000000000000000FE7F000000000000FA
:1059300000000000FE7F00000000000000000000EA
:105940000000000000000000000000000000000057
:10595000000000000000000004000800100020000B
:105960006000C000800100030006000C0018003039
:105970000018000C000600038001C0006000200039
:1059800010000800040000000000000000000000FB
:105990000000000000000000C00730180830086058
:1059A0000C601C601C601C600030001C00060001C4
:1059B0008000800080008000000000008001C003A3
:1059C000C003800100000000000000000000000093
:1059D00000000000000000000000C0076018103048
:1059E00018200C2F8C4D864CC64CC64C664C664419
:1059F0006644662666266615CC1C0C4008201830C6
:105A00003018C00700000000000000000000000087
:105A100000000000000000000001C001C001C00142
:105A20004001600320032003200330061006100607
:105A30001006F80F080C080C080C0C0C04180418BD
:105A400006181F7C0000000000000000000000009D
:105A500000000000000000000000FE07181C1838BD
:105A600018301830183018301818180CF807181893
:105A70001830182018601860186018601860183006
:105A80001818FE0F000000000000000000000000D9
:105A900000000000000000000000C0276038103047
:105AA00018200C400C40040006000600060006000A
:105AB00006000600060006000C400C400C201830C2
:105AC0003018C007000000000000000000000000C7
:105AD00000000000000000000000FE03180E18186F
